:100000000C942A000C9447000C9447000C94470071
:100010000C9447000C9447000C9447000C946C001F
:100020000C9447000C9447000C9447000C94470034
:100030000C9447000C9447000C9447000C94470024
:100040000C9447000C9447000C9447000C94470014
:100050000C94470011241FBECFE5D8E0DEBFCDBF12
:1000600010E0A0E6B0E0EEE2F3E002C005900D92F1
:10007000AE36B107D9F710E0AEE6B0E001C01D9290
:10008000AF36B107E1F70E9449000C9495010C943A
:1000900000000F931F938FEF8ABB0E94FC008CE03F
:1000A00060E00E94A80001EE10E0C8010197F1F79E
:1000B00080E860E00E94A800C8010197F1F7F89479
:1000C00089B7806189BF8EB58D608EBD8AEF90E063
:1000D0009BBD8ABD7894FFCF1F920F920FB60F92EF
:1000E00011242F933F934F935F936F937F938F933D
:1000F0009F93AF93BF93EF93FF9380916E00E09136
:100100006C00F0916D00E80FF11D808190E00E947D
:10011000810180916E008F5F80936E0080916E00F0
:100120008B3019F48EB5887F8EBD1DBC1CBCFF9131
:10013000EF91BF91AF919F918F917F916F915F915F
:100140004F913F912F910F900FBE0F901F901895D8
:10015000D49AD59AD69AD79A982F84FF02C0DC9A5F
:1001600001C0DC9895FF02C0DD9A01C0DD9896FFC2
:1001700002C0DE9A01C0DE9887FF02C0DF9A01C08C
:10018000DF98D998662311F0D89A01C0D89800005A
:10019000000000000000D99A0000000000000000EC
:1001A000D998000000000000000090FF02C0DC9A17
:1001B00001C0DC9891FF02C0DD9A01C0DD9892FF7A
:1001C00002C0DE9A01C0DE9893FF02C0DF9A01C030
:1001D000DF980000000000000000D99A0000000035
:1001E00000000000D998000000000000000080E935
:1001F00091E00197F1F708950F931F9386E49EE134
:100200000197F1F7D09AD19AD49AD59AD69AD79ADB
:10021000D998D898DC9ADD9ADE98DF980000000023
:1002200000000000D99A0000000000000000D998EA
:10023000000000000000000080E49CE90197F1F755
:100240000000000000000000D99A0000000000003B
:100250000000D998000000000000000080E49FE149
:100260000197F1F70000000000000000D99A00009B
:10027000000000000000D99800000000000000000D
:1002800080E49FE10197F1F7DC9800000000000096
:100290000000D99A0000000000000000D99800007A
:1002A00000000000000001EE10E0C8010197F1F726
:1002B00088E260E00E94A800C8010197F1F788E099
:1002C00060E00E94A800C8010197F1F7C8010197FA
:1002D000F1F781E060E00E94A80080E49FE1FC016A
:1002E0003197F1F70197F1F786E060E00E94A800EE
:1002F000C8010197F1F7C8010197F1F71F910F911C
:1003000008951F93CF93DF93EC0110E004C01F5FAB
:1003100061E00E94A800FE01E10FF11D80818823A9
:0E032000B1F7DF91CF911F910895F894FFCFB0
:0E032E004C6162656E646F7769637A006000EF
:00000001FF
