:100000000C942A000C943F000C943F000C943F0089
:100010000C943F000C943F000C943F000C943F0064
:100020000C943F000C943F000C943F000C943F0054
:100030000C943F000C943F000C943F000C943F0044
:100040000C943F000C943F000C943F000C943F0034
:100050000C943F0011241FBECFE5D8E0DEBFCDBF1A
:1000600010E0A0E6B0E0E2E4F4E002C005900D92FA
:10007000AA36B107D9F70E94CB010C941F020C9449
:1000800000008BBB08950F931F93CF93DF9300D095
:10009000CDB7DEB78C010E9468010A30110548F423
:1000A0004AE050E0BE016F5F7F4FC8010E94DF0150
:1000B0002FC00A30110529F48AE2898380E28A83FD
:1000C00027C00B30110529F483E2898380E28A83FB
:1000D0001FC00C30110529F481E4898380E28A83F2
:1000E00017C00D30110529F482E4898380E28A83E8
:1000F0000FC00E30110529F483E4898380E28A83DE
:1001000007C00F30110521F484E4898380E28A83DB
:1001100080E690E00E945B01CE0101960E945B01A7
:100120000F900F90DF91CF911F910F9108958FEF56
:100130008ABB80EF81BB8FEE82BB89EF90E0019795
:10014000F1F700C00000809B39C0819B3AC0829BC0
:100150003BC0839B3CC08FED82BB89EF90E0019751
:10016000F1F700C00000809B35C0819B36C0829BA8
:1001700037C0839B38C08FEB82BB89EF90E001973B
:10018000F1F700C00000809B31C0819B32C0829B90
:1001900033C0839B34C08FE782BB89EF90E0019727
:1001A000F1F700C00000809B2DC0819B2EC0829B78
:1001B0002FC0839930C08FE090E0089581E090E0F7
:1001C000089584E090E0089587E090E008958AE043
:1001D00090E0089582E090E0089585E090E0089531
:1001E00088E090E0089580E090E0089583E090E05A
:1001F000089586E090E0089589E090E008958BE00E
:1002000090E008958CE090E008958DE090E00895EE
:100210008EE090E008958FEF9FEF089580FF04C077
:1002200098B3906198BB03C098B39F7E98BB81FF41
:1002300004C098B3906298BB03C098B39F7D98BBED
:1002400082FF04C098B3906498BB03C098B39F7BAF
:1002500098BB83FF04C088B3806888BB089588B3C7
:100260008F7788BB0895CF93C82F88B3816088BBF0
:100270008C2F82958F700E940E0188B38E7F88BB71
:1002800088B3816088BB8C2F0E940E0188B38E7F5B
:1002900088BB80E18A95F1F700C0CF91089598B3AB
:1002A000977F98BB0E943301089598B3986098BBDC
:1002B0000E9433010895CF93DF93EC0103C0219690
:1002C0000E94550188818111FACFDF91CF91089565
:1002D00081E00E944F0183EF91E00197F1F700C0A8
:1002E00000000895CF9387B3806187BB87B3806296
:1002F00087BB87B3806487BB87B3806887BB87B3BE
:10030000816087BB87B3886087BB85EA9EE00197E1
:10031000F1F700C0000088B3877F88BB88B38E7F69
:1003200088BBC0E010C088B3816088BB83E00E94B6
:100330000E0188B38E7F88BB81EE94E00197F1F7C0
:1003400000C00000CF5FC33070F388B3816088BB0A
:1003500082E00E940E0188B38E7F88BB89EF90E017
:100360000197F1F700C0000088E20E944F0188E089
:100370000E944F0181E00E944F0183EF91E00197BD
:10038000F1F700C0000086E00E944F018CE00E945F
:100390004F01CF9108958FEF8ABB80EF81BB0E9400
:1003A00072010E949700EC01CF3F8FEFD807C9F38D
:1003B000CE010E944100CE010E944300F2CF45329F
:1003C000510520F4423010F00C94EA01FB01108238
:1003D000CB010895BB274A3031F4992322F4BDE2C2
:1003E000909581959F4F0C94F601BB27FB015527F3
:1003F000AA27880F991FAA1FA41710F0A41B839582
:100400005051B9F7A05DAA3308F0A95DA1930097F8
:1004100079F7B111B1931192CB010C940F02DC0169
:10042000FC01672F71917723E1F7329704C07C912B
:100430006D9370836291AE17BF07C8F30895F89467
:02044000FFCFEC
:0A04420050727A796369736B3A0017
:00000001FF
