:100000000C942A000C9434000C9434000C943400AA
:100010000C9434000C9434000C9434000C94340090
:100020000C9434000C9434000C9434000C94340080
:100030000C9434000C9434000C9434000C94340070
:100040000C9434000C9434000C9434000C94340060
:100050000C94340011241FBECFE5D8E0DEBFCDBF25
:100060000E9436000C9448000C9400006FEF44E2AC
:1000700054EF65BB21E030E085B3880F85BBCA0132
:100080000197F1F72F5F3F4F2A303105A9F7F1CFE4
:04009000F894FFCF12
:00000001FF
