:100000000C942A000C9436000C944E000C9466005C
:100010000C9434000C9434000C9434000C94340090
:100020000C9434000C9434000C9434000C94340080
:100030000C9434000C9434000C9434000C94340070
:100040000C9434000C9434000C9434000C94340060
:100050000C94340011241FBECFE5D8E0DEBFCDBF25
:100060000E947C000C948C000C9400001F920F9254
:100070000FB60F9211248F939F938BB385658BBB23
:1000800085B38F5F85BB88EA91E60197F1F79F9171
:100090008F910F900FBE0F901F9018951F920F9287
:1000A0000FB60F9211248F939F938BB3880F8BBB46
:1000B00085B38F5F85BB88EA91E60197F1F79F9141
:1000C0008F910F900FBE0F901F9018951F920F9257
:1000D0000FB60F9211248F939F931BBA85B38F5F36
:1000E00085BB88EA91E60197F1F79F918F910F9078
:1000F0000FBE0F901F9018959FEF9ABB8FE08BBBA0
:100100008BEF87BB18BA94BB15BA83EF81BB12BAC9
:0C01100080EE8BBF7894FFCFF894FFCFF7
:00000001FF
