:100000000C942A000C9434000C9434000C943400AA
:100010000C9434000C9434000C9434000C94340090
:100020000C9434000C9434000C9434000C94340080
:100030000C9434000C9434000C9434000C94340070
:100040000C9434000C9434000C9434000C94340060
:100050000C94340011241FBECFE5D8E0DEBFCDBF25
:100060000E9449000C9452000C94000080B38171EE
:1000700039F0819B07C0829B07C0839B07C008950E
:1000800081E005C082E003C084E001C088E090E028
:1000900008958FEF8ABB8BBB11BA82BB0E943600DA
:0800A0008BBBFCCFF894FFCFED
:00000001FF
