:100000000C942A000C9434000C9434000C943400AA
:100010000C9434000C9434000C9434000C94340090
:100020000C9434000C9434000C9434000C94340080
:100030000C9434000C9434000C9434000C94340070
:100040000C9434000C9434000C9434000C94340060
:100050000C94340011241FBECFE5D8E0DEBFCDBF25
:100060000E9436000C9453000C9400008FEF8ABB62
:1000700080EF81BB8AEA8BBB8FE082BB809903C093
:100080008BB380958BBB819903C08BB380958BBB61
:10009000829903C08BB380958BBB8399EFCF8BB3D1
:0A00A00080958BBBEBCFF894FFCFE7
:00000001FF
